:100000000C947A160C94AB160C94AB160C94AB169D
:100010000C94AB160C94AB160C94AB160C94AB165C
:100020000C94AB160C94AB160C94AB160C94AB164C
:100030000C94AB160C9435350C94AB160C94AB1693
:100040000C94AB160C9479470C94AB160C94AB162D
:100050000C94AB160C94AB160C948F380C94EB34B8
:100060000C94AB160C9464340C945A340C94AB1668
:100070000C94AB160C94AB160C94AB160C94AB16FC
:100080000C94AB160C94AB160C94AB160C94AB16EC
:100090000C94AB160C94AB160C94AB160C94AB16DC
:1000A0000C94AB160C94AB160C94AB160C94AB16CC
:1000B0000C94AB160C94AB160C94AB160C94AB16BC
:1000C0000C94AB160C94AB160C94AB160C94AB16AC
:1000D0000C94AB160C94AB160C94AB160C94AB169C
:1000E0000C94AB169E69A169906994699A69D86964
:1000F000A569A969AF69B369B769BD69C169C5690E
:10010000D869CB69CF69D369996E9E6EA36EAD6EC7
:10011000B76E306FC16EC96ED16EDB6EE56EEF6E7D
:10012000FE6E086F306F126F1C6F266FDA77BD7727
:10013000C077DD77C377C677C977D577CC77E8778F
:10014000CF77D277084AD73B3BCE016E84BCBFFD48
:10015000C12F3D6C74319ABD56833DDA3D00C77F97
:1001600011BED9E4BB4C3E916BAAAABE0000008030
:100170003F05A84CCDB2D44EB93836A9020C50B9BF
:10018000918688083CA6AAAA2ABE000000803F00EB
:100190000C94F3730C94C8980C945EDA0C94289F1A
:1001A0000C94E3980C947E980C94A1690C943ADA20
:1001B0000C9421420C9461990C94DD770C9419995C
:1001C0000C94CEC40C9444C40C94FF730C94F99812
:1001D0000C94D2770C9492980C94D4350C94126FA2
:1001E0000C9414560C94AF910C94C3A40C94FC98EA
:1001F0000C94CB690C94C5690C9487F60C949E6E94
:100200000C94C2520C94ACDA0C94CF770C94EB7330
:100210000C94086F0C9439510C94D5980C94AF69D8
:100220000C9446760C94CE910C94E7420C94734057
:100230000C94E7730C9453990C94A1910C940EA216
:100240000C94DB6E0C9456DC0C94DEA40C940374BA
:100250000C94E3730C948FDD0C94266F0C94BD7793
:100260000C9435DA0C94DA770C94AD6E0C943F5103
:100270000C94F7730C944CA00C94C96E0C94AB3492
:100280000C9436990C9406740C94B2910C94CC771F
:100290000C94F6D90C945E510C949E690C94B74260
:1002A0000C9490690C941C9F0C94FE6E0C943D5120
:1002B0000C942DA10C94E3710C946ADA0C94D59AE9
:1002C0000C942E9F0C94C6770C943FDA0C9494698E
:1002D0000C9409740C94C9770C9444DA0C94B76E9E
:1002E0000C94169F0C94E56E0C949A400C9444A0C8
:1002F0000C941C6F0C94A5400C94BA540C94CF69C8
:100300000C94D5770C94229F0C9460DC0C9477535A
:100310000C94B9DC0C945DC40C94BA980C94EF6EF8
:100320000C94ABA60C94306F0C943B780C94D3696E
:100330000C945BDC0C9471A60C94EB9C0C94C47133
:100340000C94A5690C94B3690C943B510C94C1694D
:100350000C9465DC0C94B7690C94349F0C94D869A8
:100360000C94A9690C94C2710C940C740C9439A06F
:100370000C94C6A30C94C16E0C94AA400C9464DA3D
:100380000C9453510C94F6980C94A6980C94A0A439
:100390000C94A36E0C9492400C9402420C9446F67A
:1003A0000C94C1DC0C94DB730C9470DA0C949A6995
:1003B0000C94D16E0C94C0770C94F4AB0C94D7349D
:1003C0000C94AE910C943A9F0C94DF730C94C37709
:1003D0000C94E8770C94FB730C94996E0C94EF7367
:1003E0000C9461920C94BD690C945A990C944AA097
:1003F0000C9472444E414E494E495459494E46CD93
:10040000CCCC3D0AD7233C17B7D13877CC2B3295CB
:1004100095E6241FB14F0A000020410000C84200A9
:10042000401C4620BCBE4CCA1B0E5AAEC59D740073
:10043000407A10F35A00A0724E18090010A5D4E8B3
:100440000000E87648170000E40B54020000CA9A46
:100450003B000000E1F50500008096980000004098
:10046000420F000000A086010000001027000000DD
:1004700000E803000000006400000000000A000023
:100480000000000100000000002C76D888DC674FD7
:100490000823DFC1DFAE59E1B1B796E5E3E453C607
:1004A0003AE651997696E8E6C28426EB898C9B62FF
:1004B000ED407C6FFCEFBC9C9F40F2BAA56FA5F4A9
:1004C00090055A2AF75C936B6CF9676DC11BFCE0D1
:1004D000E40D47FEF520E6B500D0ED902E03009424
:1004E0003577050080841E080000204E0A000000B9
:1004F000C80C333333330F986E12831141EF8D21C3
:1005000014893BE65516CFFEE6DB18D1844B381B29
:10051000F77C1D901DA4BBE424203284725E2281EE
:1005200000C9F124ECA1E53D270000E0C100000076
:100530000000000000FFFFFF63055E055705500542
:100540004205434F4D4D554E49434154494F4E008E
:1005500044525952554E004552524F525300494E43
:10056000464F004543484F006F6B00454550524F82
:100570004D204F4B0A004F666673657473204170BF
:10058000706C696564004572723A20546F6F206622
:1005900061722100546F6F206661722066726F6D08
:1005A000207265666572656E636520706F696E7432
:1005B0000A004D34323120696E636F727265637464
:1005C00020706172616D6574657220757361676515
:1005D0000A006469730043290A0061626C65642043
:1005E000286D696E2074656D702000436F6C642007
:1005F0006578747275646573206172652000496E58
:1006000076616C69642065787472756465720A003D
:1006100020643A0020693A0020703A0020466C6F4E
:10062000773A200020204D61783A200020204D6943
:100630006E3A2000536F667420656E6473746F7039
:10064000733A20003F4A206F7574206F66207261F4
:100650006E67652028302E303120746F20302E33A5
:10066000290A00205400205200416363656C6572C2
:100670006174696F6E3A2050004D31343520533C1F
:10068000696E6465783E206F7574206F66207261B4
:100690006E67652028302D31290A002F2F20004356
:1006A00048414D4245525F54454D50455241545585
:1006B0005245004D4F54494F4E5F4D4F44455300F6
:1006C000544845524D414C5F50524F544543544954
:1006D0004F4E004155544F5245504F52545F534472
:1006E0005F5354415455530050524F4D50545F5333
:1006F0005550504F525400454D455247454E435971
:100700005F50415253455200434153455F4C494766
:1007100048545F4252494748544E45535300544F42
:1007200047474C455F4C494748545300534F465444
:10073000574152455F504F574552004255494C442E
:100740005F50455243454E54004C4556454C494E2A
:10075000475F44415441005A5F50524F4245004167
:1007600055544F4C4556454C005052494E545F4AE3
:100770004F420050524F4752455353004155544F3A
:100780005245504F52545F54454D5000564F4C55B2
:100790004D455452494300454550524F4D00424942
:1007A0004E4152595F46494C455F5452414E534663
:1007B00045520053455249414C5F584F4E5F584F88
:1007C0004646004649524D574152455F4E414D45C0
:1007D0003A4D61726C696E20322E302E33202847DC
:1007E00069744875622920534F555243455F434F02
:1007F00044455F55524C3A68747470733A2F2F67B2
:1008000069746875622E636F6D2F4D61726C696ECD
:100810004669726D776172652F4D61726C696E20E9
:1008200050524F544F434F4C5F56455253494F4ED1
:100830003A312E30204D414348494E455F5459507E
:10084000453A54414B454F4E45203344204558547A
:1008500052554445525F434F554E543A31205555F9
:1008600049443A63656465326132662D34316132E0
:100870002D343734382D396231322D6335356336B6
:10088000326633363766660A00204D39322058000A
:1008900054414B454F4E45203344204F46462E0091
:1008A0004D3131332053004D31313220536875744E
:1008B000646F776E006F66660044454255473A00A4
:1008C000452025530050726F746563746564205031
:1008D000696E0A00256979202569642025696820E8
:1008E00025696D20256973005072696E74207469E2
:1008F0006D653A200044656C6574696F6E206661B1
:10090000696C65642C2046696C653A200046696C08
:10091000652064656C657465643A00286E6F2066B6
:10092000696C65290043757272656E742066696C26
:10093000653A20005344207072696E74696E6720B6
:100940006279746520004E6F742053442070726980
:100950006E74696E670A00456E642066696C652076
:100960006C6973740A00426567696E2066696C651C
:10097000206C6973740A004E6F204D6F76652E00EF
:10098000436C69636B20746F20526573756D652EBF
:100990002E2E004D65736820706F696E7420636140
:1009A0006E6E6F74206265207265736F6C7665641D
:1009B0000A005A2050726F626520506173742042A1
:1009C00065640A005A2050726F626520506173742A
:1009D0002042656400486F6D652058592066697231
:1009E00073740A00486F6D65205859204669727308
:1009F0007400536C6565702E2E2E004572726F72F6
:100A00002077726974696E6720746F204545505273
:100A10004F4D210A00627573793A207061757365D4
:100A20006420666F7220696E7075740A0062757357
:100A3000793A2070617573656420666F72207573F2
:100A400065720A00627573793A2070726F6365731C
:100A500073696E670A0053544F505045442E20006E
:100A60005072696E7465722073746F707065642063
:100A700064756520746F206572726F72732E2046E4
:100A8000697820746865206572726F7220616E6487
:100A900020757365204D39393920746F2072657364
:100AA000746172742E202854656D7065726174755E
:100AB00072652069732072657365742E20536574A6
:100AC0002069742061667465722072657374617246
:100AD00074696E67290A004E6F20436865636B7303
:100AE000756D2077697468206C696E65206E756D10
:100AF0006265722C204C617374204C696E653A20DB
:100B000000636865636B73756D206D69736D6174E7
:100B100063682C204C617374204C696E653A200028
:100B20004C696E65204E756D626572206973206E2A
:100B30006F74204C617374204C696E65204E756D26
:100B40006265722B312C204C617374204C696E6588
:100B50003A20004D313130004D313137004D3331C5
:100B60000053442072656164206572726F720A00DE
:100B7000446F6E65207072696E74696E6720666975
:100B80006C650A002121204B494C4C206361757330
:100B90006564206279204B494C4C20627574746FF7
:100BA0006E2F70696E0A002121204B494C4C206346
:100BB000617573656420627920746F6F206D756351
:100BC0006820696E6163746976652074696D65205B
:100BD0002D2063757272656E7420636F6D6D616E2A
:100BE000643A2000506C65617365205265736574CA
:100BF000005052494E5445522048414C54454400FF
:100C000025533A202553004B494C4C45442E200097
:100C10005072696E7465722068616C7465642E2010
:100C20006B696C6C28292063616C6C6564210A0017
:100C3000363726033C3D380E2E303E121A1C18085B
:100C4000440AFF43080907000102687474703A2FD0
:100C50002F6D61726C696E66772E6F72670020323D
:100C60002E302E33002020506C616E6E65724275FE
:100C70006666657242797465733A20002046726533
:100C800065204D656D6F72793A2000436F6D706914
:100C90006C65643A20417567203330203230323041
:100CA0000A00204C61737420557064617465643A65
:100CB00020323032302D30312D3331207C204175BF
:100CC00074686F723A204768617373616E2059755A
:100CD0007375660A00322E302E330A004D61726C35
:100CE000696E0020536F6674776172652052657378
:100CF00065740A00205761746368646F67205265E9
:100D00007365740A002042726F776E206F757420CD
:100D100052657365740A002045787465726E616C63
:100D20002052657365740A00506F77657255700ABA
:100D3000006175746F25632E67004732385859007B
:100D40006572726F722077726974696E6720746F52
:100D50002066696C650A00446F6E65207361766970
:100D60006E672066696C652E0A004D323900456E4B
:100D70006473746F707300255320256320256320EE
:100D8000256320256300205A3A0020593A00656EF9
:100D90006473746F7073206869743A2000486561E9
:100DA00074696E67206661696C6564004531006234
:100DB0006564002C2073797374656D2073746F7093
:100DC00070656421204865617465725F49443A200A
:100DD0000048656174696E67204661696C656400EE
:100DE000202D20496E76616C696420657874727577
:100DF000646572206E756D62657220210A00544828
:100E000045524D414C2052554E415741590054686E
:100E100065726D616C2052756E6177617900457203
:100E2000723A204D415854454D50004D415854455B
:100E30004D5020747269676765726564004572720F
:100E40003A204D494E54454D50004D494E54454D64
:100E50005020747269676765726564004D3834208C
:100E6000582059205A204500202F002042403A00A7
:100E700020403A0020573A0070012C0190012701D0
:100E8000B0012201C0011D01F0011801100213017F
:100E900030020E016002090190020401C002FF004D
:100EA0000003FA004003F5008003F000D003EB00DC
:100EB0002004E6007004E100E004DC004005D700F7
:100EC000C005D2004006CD00D006C8008007C30090
:100ED0003008BE00F008B900C009B400B00AAF0085
:100EE000B00BAA00D00CA500000EA000500F9B0074
:100EF000C01096005012910000148C00C01587009D
:100F0000B0178200B0197D00D01B7800001E73005E
:100F100040206E0090226900F024640040275F00AA
:100F200090295A00E02B5500102E500020304B0025
:100F300010324600E033410090353C001037370056
:100F400070383200A0392D00B03A2800A03B2300B1
:100F5000603C1E00103D1900903D1400103E0F0033
:100F6000703E0A00C03E0500003F0000403FFBFF0E
:100F7000803FF6FFC03FF1FF1000C90210012C01B5
:100F80004001220170011801B0010E01F0010401BD
:100F90005002FA00B002F0003003E600D003DC009B
:100FA0009004D2007005C800A006BE000008B4007E
:100FB000B009AA00D00BA000600E960060118C0052
:100FC0000015820020197800C01D6E00A022640068
:100FD000B0275A00902C500000314600E0343C000D
:100FE00010383200903A2800603C1E00A03D1400EA
:100FF000803E0A00203F00004F6666004F6E0041B1
:101000006476616E6365642053657474696E67739A
:10101000004E65787420506F696E7400446F6E6581
:10102000004E65787400486F6D696E672058595A94
:10103000005A2056616C756500496E6465782059C8
:1010400000496E64657820580053746F72652053B0
:10105000657474696E6773004C6F616420536574C6
:1010600074696E6773004C6576656C20436F726EB1
:101070006572730050726F6265205A204F66667306
:101080006574004661646520486569676874004559
:10109000646974204D657368004732380A473239F5
:1010A000004C6576656C2042656400526573746F10
:1010B0007265206661696C736166650024F4D430E2
:1010C00050C38E20C2A24017828B7011127A910DEC
:1010D000816CD90AA861E108C758660761514306C7
:1010E0001E4B5D05C145A7041A411104093D980333
:1010F000713931034036DB0265339102D43054023A
:10110000802E1D02632CEE01752AC501B028A001B6
:10111000102781018F2564012B244B01E02234012B
:10112000AC211F018D200D01801FFC00841EED00ED
:10113000971DDF00B81CD200E61BC600201BBC00B8
:10114000641AB200B219A8000A19A0006A1899001E
:10115000D117910040178B00B516840031167E0020
:10116000B31579003A157300C7146F0058146A005C
:10117000EE1366008813630025135E00C7125B0040
:101180006C12570015125400C111510070114F001C
:1011900021114B00D61049008D1047004610440025
:1011A00002104200C00F4000800F3E00420F3C0082
:1011B000060F3B00CB0E3800930E37005C0E350057
:1011C000270E3400F30D3200C10D3100900D3000B8
:1011D000600D2E00320D2D00050D2C00D90C2B00BA
:1011E000AE0C2900850C29005C0C2700350C27006B
:1011F0000E0C2600E80B2400C40B2400A00B2300D7
:101200007D0B23005A0B2100390B2100180B200005
:10121000F80A1F00D90A1E00BB0A1E009D0A1D0005
:10122000800A1D00630A1C00470A1B002C0A1B00D1
:10123000110A1A00F7091A00DD091900C40919007A
:10124000AB091900920917007B0918006309170000
:101250004C09160036091600200916000A09150067
:10126000F5081500E0081400CC081400B8081400B4
:10127000A4081400900813007D0812006B081300E6
:101280005808120046081200340811002308110003
:101290001208110001081100F0071000E00710000B
:1012A000D0071000C0071000B0070F00A107100002
:1012B00091070E0083070F0074070F0065070E00EB
:1012C00057070E0049070E003B070D002E070E00C2
:1012D00020070D0013070D0006070D00F9060C008E
:1012E000ED060D00E0060C00D4060C00C8060C004C
:1012F000BC060C00B0060C00A4060B0099060C00FE
:101300008D060B0082060B0077060B006C060B00A7
:1013100061060A0057060B004C060A0042060A0046
:1013200038060A002E060A0024060A001A060A00D9
:101330001006090007060A00FD050900F40509006A
:10134000EB050900E2050900D9050900D0050900EF
:10135000C7050900BE050900B5050800AD05080070
:10136000A50509009C050800940508008C050800E7
:10137000840508007C050800740508006C0507005A
:10138000650508005D050700560508004E050700C5
:10139000470507004005080038050700310507002C
:1013A0002A050700230507001C050600160507008F
:1013B0000F0507000805060002050700FB040600EC
:1013C000F5040700EE040600E8040600E204070046
:1013D000DB040600D5040600CF040600C90406009D
:1013E000C3040600BD040600B7040600B1040500EE
:1013F000AC040600A6040600A00405009B04060039
:1014000095040500900406008A0405008504050083
:10141000800406007A0405007504050070040500C8
:101420006B04050066040500610405005C0405000A
:1014300057040500520405004D040500480405004A
:10144000430405003E0404003A0405003504050089
:10145000300404002C0405002704040023040500C4
:101460001E0404001A0404001604050011040400FC
:101470000D04040009040500040404000004040031
:10148000FC030400F8030400F4030400F003040068
:10149000EC030400E8030400E4030400E003040098
:1014A000DC030400D8030400D4030400D0030400C8
:1014B000CC030400C8030300C503030024F404D9CB
:1014C000201BC40C5C0E9804C4095F0265077101FF
:1014D000F405F900FB04B30048048700C103690068
:1014E0005803550003034500BE023A008402310050
:1014F00053022A002902250004022000E4011C00F6
:10150000C8011900AF0117009801140084011300ED
:10151000710110006101100051010E0043010D0026
:1015200036010B002B010B0020010B0015010900F7
:101530000C01090003010800FB000800F30008008B
:10154000EB000700E4000600DE000600D8000600FD
:10155000D2000600CC000500C7000500C20005004F
:10156000BD000400B9000400B5000400B10004008F
:10157000AD000400A9000400A5000300A2000300C0
:101580009F0004009B0003009800030095000200E8
:1015900093000300900003008D0002008B00030005
:1015A000880002008600020084000300810002001F
:1015B0007F0002007D0002007B0002007900020033
:1015C0007700010076000200740002007200010042
:1015D000710002006F0002006D0001006C0002004B
:1015E0006A00010069000200670001006600010056
:1015F000650001006400020062000100610001005A
:10160000600001005F0002005D0001005C0001005D
:101610005B0001005A000100590001005800010060
:101620005700010056000100550001005400010060
:10163000530000005300010052000100510001005E
:10164000500001004F0001004E0000004E0001005C
:101650004D0001004C0001004B0000004B00010058
:101660004A00010049000100480000004800010054
:101670004700010046000000460001004500000050
:101680004500010044000100430000004300010048
:101690004200000042000100410000004100010042
:1016A000400001003F0000003F0001003E0000003C
:1016B0003E0001003D0000003D0001003C00000034
:1016C0003C0000003C0001003B0000003B0001002A
:1016D0003A0000003A000100390000003900010022
:1016E000380000003800000038000100370000001A
:1016F000370001003600000036000000360001000F
:101700003500000035000000350001003400000005
:1017100034000000340001003300000033000000FA
:1017200033000100320000003200000032000100EE
:1017300031000000310000003100010030000000E5
:1017400030000000300001002F0000002F000000DA
:101750002F0000002F0001002E0000002E000000CE
:101760002E0001002D0000002D0000002D000000C3
:101770002D0001002C0000002C0000002C000000B7
:101780002C0001002B0000002B0000002B000000AB
:101790002B0001002A0000002A0000002A0000009F
:1017A0002A00010029000000290000002900000093
:1017B0002900000029000100280000002800000086
:1017C0002800000028000000280001002700000079
:1017D000270000002700000027000000270001006C
:1017E0002600000026000000260000002600000061
:1017F0002600010025000000250000002500000053
:101800002500000025000000250001002400000044
:101810002400000024000000240000002400010037
:10182000230000002300000023000000230000002C
:10183000230000002300000023000100220000001C
:101840002200000022000000220000002200000010
:101850002200010021000000210000002100000002
:1018600021000000210000002100000021000100F3
:1018700020000000200000002000000020000000E8
:1018800020000000200000002000000020000100D7
:101890001F0000001F0000001F0000001F000000CC
:1018A0001F0000001F0000001F0001001E000000BC
:1018B0001E0000001E0000001E0000000437000093
:1018C0001E290000511B00005810000010090000E4
:1018D000CC04000078020000410100004C6F6164FC
:1018E000206D6D00556E6C6F6164206D6D004669F2
:1018F0006C2E204469612E004520696E206D6DC2FA
:10190000B30020022046616374002002204D6178FC
:10191000002002204D696E004175746F74656D7012
:10192000004573746570732F6D6D005A7374657024
:10193000732F6D6D005973746570732F6D6D005842
:1019400073746570732F6D6D0053746570732F6DB4
:101950006D007C3C3E5E2B3D3F2F5B5D3B2C2A2285
:101960005C002062797465733B2063726320004ED3
:101970006F20454550524F4D2E0A00454550524F5D
:101980004D206461746173697A65206572726F724B
:101990002E0A002073746F72656420736574746915
:1019A0006E677320726574726965766564202800BD
:1019B000202863616C63756C6174656429210A0079
:1019C00020213D2000454550524F4D204352432099
:1019D0006D69736D61746368202D202873746F7254
:1019E0006564292000496E6465783A2000204D61C5
:1019F000726C696E3D563735290A00454550524F85
:101A00004D2076657273696F6E206D69736D6174B8
:101A100063682028454550524F4D3D004545505282
:101A20004F4D20496E697469616C697A65640A007A
:101A300048617264636F6465642044656661756CB7
:101A4000742053657474696E6773204C6F616465AC
:101A5000640A006F70656E0054524947474552450D
:101A600044007A5F6D696E00795F6D696E00785F22
:101A70006D696E005265706F7274696E6720656E75
:101A80006473746F70207374617475730A002043FB
:101A90006F756E7420583A0020453A0000401C468D
:101AA00000401C460000164400004842AEC7B14248
:101AB000AEC7B1420000C84348A1D443B80B0000F0
:101AC000B80B000064000000B80B00005072696E93
:101AD000742066726F6D204D65646961004D6F768C
:101AE000652025736D6D004D6F766520302E316D4C
:101AF0006D004D6F766520316D6D004D6F76652000
:101B000031306D6D004D6F76652041786973004806
:101B10006F74656E6420746F6F20636F6C64004532
:101B200078747275646572004D6F7665205A004D49
:101B30006F76652059004D6F7665205800436861C7
:101B40006E67652046696C616D656E7400556E6CDC
:101B50006F61642046696C616D656E74004C6F61E5
:101B6000642046696C616D656E74005072656865CD
:101B70006174204142530050726568656174205061
:101B80004C41005072656865617420437573746FD1
:101B90006D004261636B0000002100240027002AD1
:101BA000002D003000330001010000040107010A8C
:101BB0000100002200250028002B002E00310034F7
:101BC0000002010000050108010B010000200023B4
:101BD00000260029002C002F003200000100000325
:101BE00001060109010505050507050808080802A1
:101BF0000202020A0A0808040404040101010101A6
:101C00000101010303030303030303040707070C94
:101C10000C0C0C0C0C0C0C0202020206060606064A
:101C20000606060B0B0B0B0B0B0B0B0102102020F7
:101C30000808102040102040800201020108040220
:101C40000101020408102040808040201008040296
:101C500001800402018040201008040201080402EF
:101C600001010204081020408001020408102040F5
:101C70008000000A0B02090C0D0E08070304010086
:101C80000000000000000000000000000000000054
:101C90000000000000000000000000000012111011
:101CA0000000000000000000000000000000000034
:101CB00000000000000000554E4C4F4144204649B2
:101CC0004C414D454E540046494C414D454E5420E3
:101CD0004348414E474500436F6E666967757261C0
:101CE00074696F6E004D37303220542564004D36D4
:101CF000303020423020542564004D373032203BB4
:101D00002564004D37303120542564004D37303282
:101D1000004D373031004D36303020423000436FB7
:101D20006E74696E7565005075726765206D6F72AF
:101D30006500524553554D45204F5054494F4E5321
:101D40003A005052494E54205041555345440020CA
:101D5000204E6F7A7A6C653A200053746F70004D94
:101D60003231004368616E6765204D6564696100CA
:101D7000526573756D65205072696E740054756E8E
:101D8000650053746F70205072696E74004E6F203E
:101D90004D6564696100496E666F205363726565C5
:101DA0006E005061726B696E672E2E2E0000005718
:101DB00061697420666F720066696C616D656E742E
:101DC000206368616E676500746F2073746172745C
:101DD000005761697420666F720066696C616D6599
:101DE0006E7420756E6C6F616400004E6F7A7A6C51
:101DF000652068656174696E6700506C6561736524
:101E000020776169742E2E2E000050726573732046
:101E1000627574746F6E00746F2068656174206EF3
:101E20006F7A7A6C650000496E736572742066691A
:101E30006C616D656E7400616E64207072657373A1
:101E400020627574746F6E00746F20636F6E7469B6
:101E50006E7565005761697420666F720066696C03
:101E6000616D656E74206C6F616400005072657303
:101E70007320427574746F6E00746F207265737591
:101E80006D65207072696E74000057616974206618
:101E90006F72207072696E7400746F207265737552
:101EA0006D652E2E2E00005761697420666F7200DA
:101EB00066696C616D656E7420707572676500008F
:101EC000507265737320627574746F6E20746F2026
:101ED00068656174206E6F7A7A6C650A004F4646B9
:101EE0000A0046616465204865696768742000429D
:101EF0006564204C6576656C696E67200046616993
:101F00006C656420746F20656E61626C652042654B
:101F100064204C6576656C696E670A00496E76616F
:101F20006C6964206D6573682E0A0050726F626977
:101F30006E6720506F696E740025532025692F2528
:101F4000690050726F62696E67206D6573682070FA
:101F50006F696E742000202844525952554E290052
:101F6000473239204175746F20426564204C657694
:101F7000656C696E67003F20284C2C522C462C4221
:101F800029206F7574206F6620626F756E64732EE2
:101F90000A003F2856296572626F7365206C65766A
:101FA000656C20696D706C61757369626C65202861
:101FB000302D34292E0A00426164205A2076616C4B
:101FC00075650A004E6F2062696C696E65617220EA
:101FD000677269640A0020746F6F206C6F6E6720EF
:101FE000657874727573696F6E2070726576656E50
:101FF0007465640A0020636F6C6420657874727580
:1020000073696F6E2070726576656E7465640A0020
:102010002053697A653A200043616E6E6F74206FB9
:1020200070656E207375626469722000534420638A
:10203000617264206F6B0A006F70656E526F6F740F
:10204000206661696C65640A00766F6C756D652E3B
:10205000696E6974206661696C65640A0053442086
:10206000696E6974206661696C0A004D32332025FF
:10207000730046696C652073656C65637465640AFA
:102080000046696C65206F70656E65643A20004596
:102090004E4420535542524F5554494E450A002252
:1020A00020706F73002220706172656E743A220096
:1020B000535542524F5554494E452043414C4C20B4
:1020C0007461726765743A2200747279696E672070
:1020D000746F2063616C6C207375622D67636F642D
:1020E000652066696C6573207769746820746F6F0A
:1020F000206D616E79206C6576656C732E204D4184
:1021000058206C6576656C2069733A310A00577205
:102110006974696E6720746F2066696C653A200087
:10212000667265736800646F696E67004E6F772032
:1021300000A10000006900A20000006300B00000E0
:10214000000900C10000004100C20000004100C3BE
:102150000000004100C40000004100C50000004133
:1021600000C60000004145C70000004300C8000051
:10217000004500C90000004500CD0000004900D125
:102180000000004E00D50000004F00D60000004FB8
:1021900000D70000007800DC0000005500DD0000E2
:1021A000005900E00000006100E10000006100E271
:1021B0000000006100E30000006100E40000006135
:1021C00000E50000006100E60000006165E7000036
:1021D000006300E80000006500E90000006500EA17
:1021E0000000006500EB0000006500EC00000069E5
:1021F00000ED0000006900EE0000006900EF000043
:10220000006900F10000006E00F20000006F00F3B2
:102210000000006F00F40000006F00F50000006F88
:1022200000F60000006F00F80000006F00F90000E9
:10223000007500FA0000007500FB0000007500FC4E
:102240000000007500FD0000007900FF000000792B
:1022500000040100004100050100006100060100CA
:102260000043000701000063000C01000043000D63
:1022700001000063000E01000044000F0100006433
:10228000001101000064001901000065001F010039
:102290000067003001000049003101000069004181
:1022A0000100004C00420100006C00430100004EA0
:1022B00000440100006E00480100006E005901005A
:1022C0000072005A01000053005B01000073005FC0
:1022D0000100007300600100005300610100007301
:1022E000006501000074006F01000075007C0100B2
:1022F000007A007D0100005A007E0100007A009201
:102300000100006600E30200007800222000002E99
:10231000001E210000507822210000544D90210021
:10232000003C2D922100002D3EB02100000300BB97
:1023300021000004003C2200007E00482200007EB4
:102340003D60220000213D612200003D006422002A
:10235000003C3D652200003E3DF12300000700A047
:102360003000003D0021F301000200C2F40100052D
:1023700000A2000000EC00B0000000DF00E400005C
:1023800000E100F6000000EF00F7000000FD00FC97
:10239000000000F500E3020000EB0087030000A549
:1023A000008F030000F40098030000F2009E030079
:1023B00000E300A3030000F600A9030000F400AC52
:1023C000030000E000AD030000E300B1030000E003
:1023D00000B2030000E200B5030000E300B8030010
:1023E00000F200BC030000E400BE030000E300C0F4
:1023F000030000F700C1030000E600C3030000E58E
:1024000000902100007F00922100007E001A22002F
:1024100000E8001E220000F30088250000FF0002F3
:10242000300000A1000C300000A2000D300000A31D
:10243000009B300000DE009C300000DF00A0300078
:10244000003D00A1300000A700A2300000B100A3B1
:10245000300000A800A4300000B200A5300000A9A0
:1024600000A6300000B300A7300000AA00A830008A
:1024700000B400A9300000AB00AA300000B500ABEA
:10248000300000B600AC300000B6DEAD300000B762
:1024900000AE300000B7DEAF300000B800B0300052
:1024A00000B8DEB1300000B900B2300000B9DEB3D0
:1024B000300000BA00B4300000BADEB5300000BB16
:1024C00000B6300000BBDEB7300000BC00B8300002
:1024D00000BCDEB9300000BD00BA300000BDDEBB7C
:1024E000300000BE00BC300000BEDEBD300000BFCA
:1024F00000BE300000BFDEBF300000C000C03000B2
:1025000000C0DEC1300000C100C2300000C1DEC327
:10251000300000AF00C4300000C200C5300000C26F
:10252000DEC6300000C300C7300000C3DEC8300084
:1025300000C400C9300000C4DECA300000C500CBB2
:10254000300000C600CC300000C700CD300000C80D
:1025500000CE300000C900CF300000CA00D03000EB
:1025600000CADED1300000CADFD2300000CB00D379
:10257000300000CBDED4300000CBDFD5300000CC03
:1025800000D6300000CCDED7300000CCDFD83000E1
:1025900000CD00D9300000CDDEDA300000CDDFDB29
:1025A000300000CE00DC300000CEDEDD300000CE9A
:1025B000DFDE300000CF00DF300000D000E0300070
:1025C00000D100E1300000D200E2300000D300E38F
:1025D000300000AC00E4300000D400E5300000AD75
:1025E00000E6300000D500E7300000AE00E8300023
:1025F00000D600E9300000D700EA300000D800EB38
:10260000300000D900EC300000DA00ED300000DBD3
:1026100000EF300000DC00F2300000A600F33000D4
:1026200000DD00F4300000B3DEF7300000DCDEFA3D
:10263000300000A6DEFB300000A500FC300000B03A
:1026400000FD300000A400074E0000FB0086510092
:1026500000FC0043530000FA0064FF0000A4006582
:10266000FF0000A50066FF0000A60067FF0000A7AE
:102670000068FF0000A80069FF0000A9006AFF00D1
:1026800000AA006BFF0000AB006CFF0000AC006D07
:10269000FF0000AD006EFF0000AE006FFF0000AF56
:1026A0000070FF0000B00071FF0000B10072FF0079
:1026B00000B20073FF0000B30074FF0000B40075A7
:1026C000FF0000B50076FF0000B60077FF0000B7FE
:1026D0000078FF0000B80079FF0000B9007AFF0021
:1026E00000BA007BFF0000BB007CFF0000BC007D47
:1026F000FF0000BD007EFF0000BE007FFF0000BFA6
:102700000080FF0000C00081FF0000C10082FF00C8
:1027100000C20083FF0000C30084FF0000C40085E6
:10272000FF0000C50086FF0000C60087FF0000C74D
:102730000088FF0000C80089FF0000C9008AFF0070
:1027400000CA008BFF0000CB008CFF0000CC008D86
:10275000FF0000CD008EFF0000CE008FFF0000CFF5
:102760000090FF0000D00091FF0000D10092FF0018
:1027700000D20093FF0000D30094FF0000D4009526
:10278000FF0000D50096FF0000D60097FF0000D79D
:102790000098FF0000D80099FF0000D9009AFF00C0
:1027A00000DA009BFF0000DB009CFF0000DC009DC6
:1027B000FF0000DD009EFF0000DE009FFF0000DF45
:1027C00000E5FF00005C00001C1F11111F0000004D
:1027D00006191803130C00040E1F041C000000004F
:1027E0000E1315110E00001C101817050605000425
:1027F0000A0A0A0A11110E0C12120C000000000045
:102800001F1511151F000000000000010204040044
:1028100000001C1C0C040404020100000000000461
:10282000081000000000007C4D61726C696E7C0035
:102830002D2D2D2D2D2D004175746F20486F6D6548
:102840000054656D7065726174757265004D383441
:102850000044697361626C652053746570706572C1
:102860007300473238005072656865617420504CBF
:102870004120426564005072656865617420504C67
:102880004120456E64005072656865617420414264
:102890005320456E64005072656865617420414242
:1028A000532042656400436F6F6C646F776E00461F
:1028B000616E205370656564207E004E6F7A7A6C7D
:1028C00065004D61696E00466C6F770053706565F9
:1028D00064002568753A2530326875002530326805
:1028E000753A25303268750053440020202020209E
:1028F000202000486F6D696E67204661696C6564D1
:10290000005761726E696E673A20486F6D696E6735
:102910002042756D702044697669736F72203C2087
:10292000310A005555854255558542555555410248
:1029300002040000A0400000A04000000040008011
:102940008A4300001643000018433F5A206F7574F5
:10295000206F662072616E67652028003F59206FE6
:102960007574206F662072616E676520282D0020C7
:10297000746F20003F58206F7574206F662072615D
:102980006E676520282D0050726F6265204F666665
:10299000736574205800656E7175657565696E673D
:1029A000202200526573656E643A200042656420FF
:1029B000436F6F6C696E672E2E2E0042656420484F
:1029C000656174696E672E2E2E0023646566696EDC
:1029D000652044454641554C545F004B6420004BF4
:1029E0006920004B702000504944204175746F7479
:1029F000756E652066696E6973686564212050751F
:102A00007420746865206C617374204B702C204BAB
:102A10006920616E64204B6420636F6E7374616E15
:102A200074732066726F6D2062656C6F7720696EBB
:102A3000746F20436F6E66696775726174696F6E3B
:102A40002E680A00504944204175746F74756E6594
:102A5000206661696C6564212074696D656F7574A9
:102A60000A000A20436C6173736963205049442053
:102A70000A00204B643A2000204B693A2000204B8A
:102A8000703A20002054753A2000204B753A2000FF
:102A9000206D61783A2000206D696E3A2000206434
:102AA0003A200020626961733A2000504944204175
:102AB00075746F74756E652073746172740A00505A
:102AC0004944204175746F74756E65206661696C48
:102AD0006564212054656D7065726174757265203E
:102AE000746F6F20686967680A0050494420417517
:102AF000746F74756E65206661696C65642120422F
:102B00006164206578747275646572206E756D629B
:102B100065720A005072696E742050617573656445
:102B2000005061757365205072696E74004D656464
:102B300069612052656D6F766564004D65646961F9
:102B400020496E7365727465640054414B454F4E65
:102B5000452033442052656164792E005072696EBD
:102B600074696E672E2E2E005072696E7420416259
:102B70006F72746564004D323520500A4D32340056
:102B80000000794300001643000018435365747435
:102B9000696E67732053746F7265642028006563E3
:102BA000686F3A004572726F723A0042696C696EE2
:102BB000656172204C6576656C696E672047726945
:102BC000643A0A00486F74656E6420746F6F206306
:102BD0006F6C640A004D3630303A20546F6F2043DA
:102BE0006F6C6400507265737320627574746F6EDD
:102BF00020746F20726573756D650A003F004D6F1C
:102C000074696F6E005374617274205072696E74CF
:102C10000043616E63656C0043616E6E6F74206586
:102C20006E746572207375626469723A2000052EB5
:102C30002E0020496E76616C696420657874727527
:102C400064657220004361703A0047322F47332099
:102C500062616420706172616D65746572730A00EF
:102C60006F70656E206661696C65642C2046696CC6
:102C7000653A2000205A3A200020593A2000426547
:102C80006420583A200050726F62696E6720466176
:102C9000696C65640A0050726F62696E67204661F4
:102CA000696C656400486F6D652025732573257315
:102CB00020466972737400496E7365727420666988
:102CC0006C616D656E7420616E64207072657373E3
:102CD00020627574746F6E0A00220A00556E6B6E66
:102CE0006F776E20636F6D6D616E643A2022000015
:102CF00087F646F611241FBECFEFD1E2DEBFCDBF6F
:102D000000E00CBF13E0A0E0B2E0EEE2FDE002E084
:102D10000BBF02C007900D92A838B107D9F723E185
:102D2000A8E8B3E001C01D92A636B207E1F716E1AC
:102D3000C9E7D6E100E006C021970109802FFE0116
:102D40000F94DE02C837D10780E00807A9F70E9478
:102D50003FEF0D9485060C9400002F923F924F9206
:102D60005F926F927F928F929F92AF92BF92CF921B
:102D7000DF92EF92FF920F931F93CF93DF93CDB724
:102D8000DEB7E8970FB6F894DEBF0FBECDBF209137
:102D90005C1328AB81E080935C1380916F048D34C9
:102DA00009F443C3843511F40C946529873411F078
:102DB0000C94802920916D0430916E042B313105E3
:102DC00009F487C094F42430310534F422303105FD
:102DD000C4F537FF2AC025C324303105D9F1253188
:102DE000310511F40C9482291CC32A32310509F4EF
:102DF000F1C15CF42D31310509F495C00CF483C0A8
:102E00002E31310509F4A3C00CC32B35310509F46B
:102E10005EC12C35310509F45FC12A35310509F051
:102E200000C310926C040C948229809124028823A0
:102E300011F40C9482290E9480DF0E9469B20C94E4
:102E4000822981E02230310509F080E00E943AE0D9
:102E50000C94822980E50E940B7C882329F00E9433
:102E60004CE76B017C0103C0C12CD12C760183E5BA
:102E70000E940B7C882361F00E94B37920E030E04F
:102E80004AE754E40E945FFC0F9462046B017C01EA
:102E90000E9496AC80914304811105C060E082EFEE
:102EA00099E00E940DC40E94736FC60ED71EE81EE3
:102EB000F91E0E94736FDC01CB018C199D09AE09CC
:102EC000BF09B7FD02C00C94822980E00E94342F14
:102ED000F0CF0E94C4EC81110C9482298CE0E2E7CF
:102EE000F2E0DE01119601900D928A95E1F760E023
:102EF00070E080E50E9439E7BE016F5F7F4F0E945E
:102F0000A5D00C948229809159138770873011F0D5
:102F10000C94882960E08FE40E94337C81110C942A
:102F200082290C9488290E94C4EC81110C94822976
:102F300080913004882311F40C94C92A60E08FE456
:102F40000E94337C81110C9482290C94C92A20910F
:102F50004D1330914E1340914F1350915013609187
:102F600044027091450280914602909147020F946D
:102F7000EF02AB01BC0188E50E9498B669837A83B1
:102F80008B839C83209151133091521340915313A2
:102F900050915413609148027091490280914A0205
:102FA00090914B020F94EF02AB01BC0189E50E94A6
:102FB00098B66D837E838F839887BE016B5F7F4F4A
:102FC000CE0101960E944778882311F40C9482293F
:102FD00080E00E94F2D30E945DB561E085E40E942A
:102FE000337C21E0482FBE016B5F7F4FCE010196FD
:102FF0000E941AED6B017C019B01AC010F94E1056D
:1030000081115FC089809A80AB80BC8020E030E075
:10301000A901C501B4010E94F9FB87FF05C027E1A2
:1030200037EB41E558EB04C027E137EB41E558E3C6
:10303000C501B4010F94EF02AB01BC018EE79CE225
:103040000E9411D88D809E80AF80B88420E030E04F
:10305000A901C501B4010E94F9FB87FF05C027E162
:1030600037EB41E558EB04C027E137EB41E558E386
:10307000C501B4010F94EF02AB01BC0189E79CE2EA
:103080000E9411D820E030E0A901C701B6010E94DA
:10309000F9FB87FF05C067E177EB81E598EB04C09A
:1030A00067E177EB81E598E3A70196010F94EF02C2
:1030B000AB01BC0184E79CE20E9411D88AE00E9427
:1030C000082E0E9444B50E94EB600C9482298FE088
:1030D00080936C040C9482292EE7222E22E0322E5B
:1030E00034E2E32E34E0F32EA4E4B2E0BDA7ACA7B3
:1030F00041E4C42E43E1D42E00E010E0F1018191BF
:103100001F010E940B7C882309F44AC00E94B379F6
:103110002B013C01133049F0D6012D913D914D9189
:103120005C910F94EE022B013C01ECA5FDA52081E2
:10313000318142815381C301B2010F94EE024B01F0
:103140005C012DEB37E346E855EB0F944F0587FD07
:103150000AC02DEB37E346E855E3C501B4010E94F0
:10316000F9FB1816ECF4133051F4409250025092CF
:103170005102609252027092530201E011C0A50107
:103180009401D7016D917D918D919C910F94EF02E7
:10319000F7016083718382839383812F0E947CB0C7
:1031A0001F5FF4E0EF0EF11C2CA53DA52C5F3F4FF7
:1031B0003DA72CA734E0C30ED11C143009F09ECFDC
:1031C000002321F080E592E00E94FB4F0E94EB601B
:1031D0000C94822980912402882311F40C94822972
:1031E00089E40E940B7CE82E882321F00E94AF79AD
:1031F000082F01C000E08AE40E940B7CF82E88238F
:1032000021F00E94AF79182F01C010E0EE2011F0DC
:10321000043020F4FF2041F0143030F083E999E0CD
:103220000E9459D70C94822980E1E4E4F2E0A3E300
:10323000B4E001900D928A95E1F7EE2019F1602F2C
:10324000000F770B880B990B0E9400FC209114044F
:103250003091150440911604509117040E945FFCB0
:1032600020911C0430911D0440911E0450911F04B4
:103270000F94EF0260933304709334048093350409
:1032800090933604FF2019F1612F110F770B880BF3
:10329000990B0E9400FC2091180430911904409170
:1032A0001A0450911B040E945FFC2091200430916D
:1032B000210440912204509123040F94EF02609363
:1032C0003704709338048093390490933A0460E093
:1032D00080E50E94337C8823C1F1EE20D1F020915B
:1032E0004D1330914E1340914F13509150136091F4
:1032F00033047091340480913504909136040F9416
:10330000EE026093330470933404809335049093F9
:103310003604FF20D1F02091511330915213409187
:103320005313509154136091370470913804809175
:10333000390490913A040F94EE026093370470932D
:1033400038048093390490933A0440E050E0BA0185
:1033500086E40E9498B66B017C0120E030E0A90170
:103360000F944F0518165CF420E030E040E752E47B
:10337000C701B6010F94E9036B017C0103C0C12CA6
:10338000D12C760180906E0290906F02A090700216
:10339000B090710220E030E0A901C701B6010E949F
:1033A000F9FB882341F0C0926E02D0926F02E09246
:1033B0007002F0927102009121021091220284E6C3
:1033C00090E09093220280932102C0905402D0900A
:1033D0005502E0905602F090570280E090E0A0E89D
:1033E000BFE38093540290935502A0935602B0938A
:1033F00057020E9469B280926E0290926F02A09270
:103400007002B09271021093220200932102C092C6
:103410005402D0925502E0925602F09257020C9458
:1034200082290E94CAEB0C94822900916D041091AC
:103430006E040637110511F40C9433220CF0CBC046
:103440000C34110509F4CFC40CF059C00931110531
:1034500009F4D8C234F50431110509F463C28CF4BF
:103460000131110509F44AC234F40230110508F49F
:10347000C9C10C9462290231110509F466C60C9485
:1034800062290631110509F472C20CF46CC20731CD
:10349000110509F475C20831110509F486C20C94AE
:1034A00062290E31110509F421C3B4F40B31110561
:1034B00009F4C1C20CF4B1C20C31110509F40EC3F8
:1034C0000D31110511F00C9462298091F7128E7F55
:1034D0008093F7120C9482290032110509F467C316
:1034E0000CF4A8C30A32110509F44FC40B341105BA
:1034F00011F00C9462290E94BACC0C9482290A36ED
:10350000110509F4F9C4CCF50435110509F41DC6FB
:10351000FCF40135110509F4FBC54CF40D3411051B
:1035200011F00C9462290E94F3CC0C94822902358C
:10353000110509F402C60335110511F00C94622936
:1035400080916C048F7E806280936C040C9482293D
:103550000C35110509F44BC634F40535110509F491
:1035600021C60C9462290836110509F440C40936B5
:10357000110509F4ADC40C9462290F36110509F444
:1035800001C584F40C36110509F441C50CF4D8C406
:103590000D36110509F44BC40E36110509F4DFC4CC
:1035A0000C9462290237110509F4DFC654F4003780
:1035B000110509F432C50137110509F43BC50C9416
:1035C00062290337110509F4D5C60537110509F439
:1035D0003AC70C9462290E3281E0180711F40C945A
:1035E000DA250CF07AC0093C110511F40C9427235C
:1035F0006CF50C38110509F442C59CF40837110527
:1036000009F46EC70CF469C70937110509F470C7CE
:103610000D37110511F00C9462290E946CE60C9490
:1036200082290B39110509F44BC534F40139110510
:1036300009F465C70C9462290E3B110509F43CC5D9
:10364000083C110509F4B6C70C946229033D110525
:1036500011F40C94D02314F50C3C110511F40C94C6
:103660006F233CF40B3C110511F40C944D230C9486
:1036700062290D3C110511F40C94A3230E3C110595
:1036800011F00C9462294EE7C42E42E0D42E56ED80
:10369000E52E53E0F52E10E00C94BE23023E1105FA
:1036A00011F40C94F92464F40C3D110511F40C94FC
:1036B00096240D3D110511F40C94A3240C94622959
:1036C0000C32A1E01A0711F40C9445250D3211407B
:1036D00011F40C945A250C946229053FE1E01E0771
:1036E00011F40C94E7260CF047C00A3921E01207C8
:1036F00009F49CC414F5003981E0180711F40C9406
:103700001E264CF40F32114011F00C9462290E94D5
:10371000AFB60C9482290139B1E01B0711F40C9467
:1037200021260239114011F00C94622980E00E9498
:10373000B94E0E94EB600C948229053AF1E01F0714
:1037400011F40C9427264CF4043A114011F00C9417
:1037500062290E94337A0C9482290C3A81E018077E
:1037600011F40C948926043F114011F00C94622945
:103770000E94D2C70C9482290B35A2E01A0711F4DB
:103780000C940327FCF4083FE1E01E0711F40C94AD
:10379000EA264CF4063F114011F00C9462290E9475
:1037A0003E620C9482290C3032E0130711F40C9421
:1037B000FB260835124011F00C9462290E9470E536
:1037C0000C948229033593E0190711F40C945129C4
:1037D0006CF40D3BB2E01B0711F40C947C270E3BFC
:1037E000124011F40C9492280C946229003AF3E0F0
:1037F0001F0709F411C2073E134011F40C94542919
:103800000C946229A0901204B090130480E50E94E9
:103810000B7C882359F00E944CE76B017C0111E07E
:10382000672B682B692B31F410E004C010E0C12C29
:10383000D12C760183E50E940B7C882311F40C9433
:10384000CC2A0E94B37920E030E04AE754E40E9499
:103850005FFC0F9462046B017C0111110BC0672B9C
:10386000682B692B39F4A114B10421F0D5018C9196
:10387000811102C010E001C011E00E9496AC11233A
:1038800029F061E0C5010E9488C405C060E080E8BD
:1038900099E00E940DC410915C1383E080935C1347
:1038A00081E080935B13C114D104E104F104B1F011
:1038B0000E94736FC60ED71EE81EF91E0E94736F1A
:1038C000DC01CB018C199D09AE09BF09B7FF0EC001
:1038D00080915B1381110C94D12A08C080915B13F5
:1038E000882321F080E00E94342FF8CF0E94ABC4DF
:1038F00010925B1310935C130C94822980910E0438
:1039000084FF02C00C94D62A8091100487FF02C065
:103910000C94D62A80911104837011F00C94D62A4D
:103920000C94F22A86E699E00E9459D781E691E14B
:103930000E94E4598BE1E1E6F1E1DE01119601908C
:103940000D928A95E1F760E070E0CE0101960E9449
:103950007796CE0101960E948F5B87E599E00E94E1
:1039600059D70C9482290E946C930C9482290E944E
:10397000FB928091F712877F8093F7120C94822933
:10398000E0911204F09113048081882329F08032A1
:1039900009F410823196F8CF60E080911204909182
:1039A00013040E9458950C94822980910D04882359
:1039B000E9F080E090E0A8E4B2E488A399A3AAA388
:1039C000BBA31C8E1D8E1E8E1F8E19821A821B8217
:1039D0001C8220E0AE01405E5F4FBE01645E7F4FFF
:1039E000CE0101960E941D810C9482290E94532DC4
:1039F000882321F00E940C930E94BACC0E94ABC491
:103A00000C9482298091F71282FF03C08B7F8093F0
:103A1000F7120E946CE60C9482298091F71283FDC4
:103A200002C00C94822983E50E940B7C81110C94C6
:103A3000002B0C94822983E40E94EA79882319F1EF
:103A400085E299E00E9459D780910B11882391F06B
:103A5000BE016F5F7F4F88E091E10E94955B8E0110
:103A60000F5F1F4FF80181918F01882339F00E9469
:103A7000082EF8CF8BE199E00E9459D78AE00E9486
:103A8000082E0C9482298091F71282FF21C084E3D2
:103A900099E00E9459D76091F3127091F4128091CD
:103AA000F5129091F6124AE00E940F2E8FE20E94CA
:103AB000082E6091EF127091F0128091F1129091A6
:103AC000F2124AE00E940F2E0E940D2F0C948229C0
:103AD00086E499E00E9459D70C94822980911204BF
:103AE000909113040E940A950C9482298091F712F8
:103AF00083FD02C00C9482290E94B3EB8091F712DF
:103B000083FD02C00C948229409112045091130449
:103B1000BE01645E7F4F80E00E94C3E88C01009785
:103B200011F40C9482296C8D7D8D19821C8222E007
:103B3000AC01CE0101960E94535F811102C0F12CAD
:103B400014C0CE0101960E9431E88823C1F361E0E0
:103B5000CE0101960E94375B009789F325EEDC01C8
:103B60002C931C820E94545AF82ECE0101960E947A
:103B70008F5BB801FF2089F08DE099E00E942FD87B
:103B80008AE00E94082E1092F3121092F412109202
:103B9000F5121092F6120C94822985EF98E00E949B
:103BA0002FD884EB9FE10E9459D70C9482298091F1
:103BB000F71282FD0E9496AC8091F71283FD02C03D
:103BC0000C94822960E080E50E94337C182F682FD6
:103BD00080911204909113040E94589583E50E94ED
:103BE0000B7C882381F00E947B79AB01BC01409360
:103BF000F3125093F4126093F5127093F61288E06A
:103C000091E10E94F5570E940C9311110C948229A6
:103C10000E94BACC0C948229209112043091130492
:103C20009091F71292609093F712C9010E940A9541
:103C30000C9482290E946BCC7B018C0120E831E539
:103C400041E050E00F944F02C9016DE671E00F941E
:103C500097024B015C01C801B70120E13EE040E062
:103C600050E00F944F02CA01B90128E130E040E072
:103C700050E00F944F02762E672EC62ED72E9CE36F
:103C8000292E312C412C512CC801B701A2019101E0
:103C90000F944F02F62EE72ECA01B901A20191013D
:103CA0000F944F02CB018E010F5F1F4F81149104BF
:103CB00099F0EF92FF927F936F936F927F92BF92F2
:103CC000AF929F928F9284ED98E09F938F931F9372
:103CD0000F930E9491FB13C0A114B104B1F0EF92B5
:103CE000FF927F936F936F927F92BF92AF9288ED16
:103CF00098E09F938F931F930F930E9491FB0FB6B1
:103D0000F894DEBF0FBECDBF30C0CD2879F0EF9262
:103D1000FF927F936F936F927F928CED98E09F93C9
:103D20008F931F930F930E9491FBE9CF892B69F02A
:103D3000EF92FF927F936F9380EE98E09F938F9323
:103D40001F930F930E9491FBDACFEF92FF9284EEC4
:103D500098E09F938F931F930F930E9491FB0F9076
:103D60000F900F900F900F900F9060E0C8010E948D
:103D700088C40E9446D8B80188EE98E00E942FD8E7
:103D80008AE00E94082E0C94822983E50E940B7C15
:103D9000882311F40C9482290E948B79F82E6DE00F
:103DA00070E080E50E94187C8C0197FF02C00C94A3
:103DB0008229873031F0893041F4F092CE070C949B
:103DC0008229F092CF070C94822960E089E40E9456
:103DD000337C81110C94112B802F0E941AEF8111DA
:103DE00025C60C94112B0E94DECC0C948229809164
:103DF000A30C83FF02C00C9482290E9447E587FF31
:103E000002C00C94822983E50E940B7C882359F020
:103E10000E94B3790F945B04CB010E94873661E066
:103E200080E00E94C7380E9494F50C94822980910A
:103E3000A30C83FF02C00C9482290E9447E5F82E50
:103E400087FF02C00C94822983E50E940B7C082F17
:103E5000811106C082E50E940B7C182F882361F136
:103E60000E94B3790F945B04CB010E94873661E016
:103E700081E00E94C7386091F9107091FA10072E06
:103E8000000C880B990B0E9400FC4B015C014090D8
:103E9000F5105090F6106090F7107090F810A30194
:103EA00092010F944F05181614F40C94392B00232B
:103EB00011F40C941F2B11E00E9494F5112311F4BE
:103EC0000C948229602F8F2D0E940E370C9482292A
:103ED0000E9447E5182F87FD0AC088E695E00E94FA
:103EE00059D7812F0E9497368AE00E94082EB8A9E0
:103EF000B0935C130C945F2C60E080E50E94277CFB
:103F0000182F823010F00C94822981E40E94EA7903
:103F1000882321F06091CE0770E002C06FEF70E05F
:103F200083E50E9439E7E12FF0E0E253F84F8F3F3D
:103F3000910519F010F08FEF90E080830C948229A6
:103F400060E080E50E94277C823010F00C9482298A
:103F5000E82FF0E0E253F84F10820C9482298EE4AF
:103F60000E940B7C882311F40C9482290E947B7997
:103F70006093090470930A0480930B0490930C04DB
:103F80000C94822983E50E94EA79882331F060E06D
:103F900083E50E94277C8093A30C0E9446D889EB7E
:103FA00098E00E9459D78091A30C882369F188E397
:103FB000E82E85E0F82E00E010E020E08091A30CD0
:103FC00090E0A0E0B0E0002E04C0B695A7959795CC
:103FD00087950A94D2F780FF0EC0DD24D394D20EC9
:103FE000222319F08CE20E94082EF701859194910A
:103FF0000E9459D72D2D0F5F1F4FE2E0EE0EF11CEE
:1040000005301105D9F63ACD85EB98E035CD109203
:104010005B13109220020C94822941E060E070E072
:1040200087EA98E00E94A22C0C9482290E94112D0C
:104030000C94822983E50E940B7C882381F00E94E6
:104040008B79282F30E02D33310524F480931F0223
:104050000C9482298CE380931F020C9482290E9485
:1040600046D840911F0250E060E070E080EA98E09E
:104070000E94F3D78AE00E94082E0C948229809136
:10408000A30C83FF02C00C94822983E50E940B7C61
:10409000882311F40C9482290E94B3790F945B0455
:1040A0006C3871050CF48B0110930704009306041F
:1040B0000E94D4350C9482290E94ACBA0C948229B7
:1040C00083E50E940B7C882311F40C9482290E94C2
:1040D0008B79182F90E0CD970CF01CE31093FD0323
:1040E0000E94736F6B017C01212F30E0A8EEB3E0DA
:1040F0000F947C02C60ED71EE81EF91EC092F9036B
:10410000D092FA03E092FB03F092FC030C94822914
:104110000E94DF380E94F3CC0E949CAD0E944E2D7D
:1041200068EE73E080E090E00E9435D760E080E9BF
:1041300098E00E940DC40C94822980916C048F7DBC
:10414000806180936C040C94822983E50E940B7C2F
:104150008823A1F00E94B37920E030E04AE754E4DC
:104160000E945FFC0F94620460931B0270931C0218
:1041700080931D0290931E020C94822980910E045C
:1041800084FF02C00C943C2B8091100487FF02C076
:104190000C943C2B80911104837011F00C943C2BF7
:1041A0000C94682B83E50E94EA79882311F40C941F
:1041B00082290E94736F6093F5037093F6038093D6
:1041C000F7039093F8030E94B37920E030E04AE7C8
:1041D00054E40E945FFC0F9462046093F1037093B7
:1041E000F2038093F3039093F4030C9482290E94CA
:1041F00047E587FF02C00C94822980910E0484FD5C
:1042000004C08091100487FF0AC01EE7C12E12E08F
:10421000D12E04EAE02E0CE0F02E10E03BC080919D
:104220001104837091F70E9446D84091B80C5091C8
:10423000B90C6091BA0C7091BB0C89E898E00E94AF
:1042400011D84091BC0C5091BD0C6091BE0C709186
:10425000BF0C83E39BE10E9411D84091C00C5091A8
:10426000C10C6091C20C7091C30C8CE29BE10E9466
:1042700011D84091C40C5091C50C6091C60C70913E
:10428000C70C85E69EE00E9411D88AE00E94082EA5
:104290000C948229D6018D916D010E940B7C88239C
:1042A00009F459C0133009F04FC00E94B3794B0193
:1042B0005C0120E030E040EA51E40E94F9FB87FF16
:1042C0003AC0A50194016091C40C7091C50C809115
:1042D000C60C9091C70C0F94E9032B013C019B0184
:1042E000AC016091D40C7091D50C8091D60C90915A
:1042F000D70C0E945FFC6093D40C7093D50C809314
:10430000D60C9093D70C6091C2077091C30780912F
:10431000C4079091C5070E94FEFBA30192010E9471
:104320005FFC0F9462046093C2077093C30780938D
:10433000C4079093C5078092C40C9092C50CA092BC
:10434000C60CB092C70C07C00E94B379F701648B0A
:10435000758B868B978B1F5FF4E0EF0EF11C14308A
:1043600009F098CF0E94D74FCDC70E9496AC0E940B
:10437000EB60C8C783EC97E00E9459D760E083EBFD
:1043800097E00E944CDF60E08EE997E00E944CDFEE
:1043900061E087E997E00E944CDF61E08CE897E0FC
:1043A0000E944CDF61E08CE797E00E944CDF60E008
:1043B00083E797E00E944CDF61E089E697E00E9486
:1043C0004CDF61E08FE597E00E944CDF61E087E51C
:1043D00097E00E944CDF61E089E497E00E944CDFA7
:1043E00060E08BE397E00E944CDF60E08CE297E0B6
:1043F0000E944CDF60E08EE197E00E944CDF60E0BD
:1044000088E097E00E944CDF60E087EF96E00E9432
:104410004CDF60E088EE96E00E944CDF60E083EDC8
:1044200096E00E944CDF61E080EC96E00E944CDF59
:1044300060E083EB96E00E944CDF60E08FE996E05D
:104440000E944CDF5FC78091120490911304009783
:1044500009F4D4CADC012C91222309F4CFCA60E00C
:104460000E9488C44FC7009112041091130494E075
:10447000F12C40E0915021F1F8018081282F2B7F11
:10448000213421F421812133D9F407C08035C1F4CE
:10449000818180538A3048F013C0813421F0853403
:1044A00021F441E002C0FF24F39498012E5F3F4FB6
:1044B00089012F5F3F4FF80180818032C9F3DACF45
:1044C00041110E9446D8FF2021F08BE996E00E941E
:1044D00059D7C8010E94132F15C70E940D6212C739
:1044E00081E080933104809332040E942F620AC7D6
:1044F00010923104109232040E942F6203C760E0D0
:1045000070E083E50E94187C8C01112702301105B0
:104510003CF00E9442D889E796E00E9459D7F2C643
:1045200088E40E940B7C8823A9F00E94AF798A3A24
:1045300091053CF08530F1E09F072CF084E091E09C
:1045400002C08AEA90E0F801EE0FFF1FE351FC4F32
:104550009183808386E40E940B7C882381F00E94F3
:10456000AF7997FD07C08F3F910529F024F08FEFB9
:1045700090E001C080E0F801E551FC4F808382E4C7
:104580000E940B7C882309F4BDC60E94AF79853058
:10459000910534F08D3891052CF08CE890E002C044
:1045A00085E090E0000F111FF801E951FC4F918365
:1045B0008083A8C60E9447E5182F87FDA3C684E420
:1045C0000E94EA79882309F43FC00E94B3796B0105
:1045D0007C0101E020E030E0A9010E94F9FB81119B
:1045E00001C000E00093E60320E030E0A901C7012C
:1045F000B6010E94F9FB882339F10E94B37924E0C7
:104600001202F0011124EE51FC4F6083718382830A
:10461000938320E030E0A9016091E2037091E3030D
:104620008091E4039091E5030E94F9FB81110CC095
:1046300080E090E0A0EEBFE38093E2039093E30379
:10464000A093E403B093E5030E94F4AB5BC60E9421
:1046500047E587FD57C6EEE7EE2EE2E0FE2E04EAC0
:104660001CE0F4EBCF2EFCE0DF2ED7018D917D0115
:104670000E94EA79882359F00E94B3790F9462046A
:10468000F80160837183828393830E94904F0C5F53
:104690001F4FC016D10649F735C60E9447E587FD72
:1046A00031C66EE7E62E62E0F62E04EA1CE074EBFB
:1046B000C72E7CE0D72ED7018D917D010E94EA792B
:1046C000882339F00E94B379F80164A375A386A307
:1046D00097A30C5F1F4FC016D10669F713C68091D0
:1046E0000F0487FF02C00C946B2B809110048E7016
:1046F00011F00C946B2B4091D80C5091D90C609117
:10470000DA0C7091DB0C89E696E00E9411D840919A
:10471000DC0C5091DD0C6091DE0C7091DF0C86E6B4
:1047200096E00E9411D84091E00C5091E10C60910C
:10473000E20C7091E30C83E696E00E9411D88AE0C7
:104740000E94082EDFC580910E0481FF02C00C94E8
:10475000B12B80910F0481FF02C00C94B12B80918A
:1047600010048C7011F00C94B12BCCC51F5FF4E0D9
:10477000EF0EF11C133011F40C94E618D6018D9154
:104780006D010E94EA79882389F30E94B379F701C9
:104790006083718382839383812F0E947CB0E6CFF4
:1047A0004090411350904213609043137090441313
:1047B00020910302309104024091050250910602BB
:1047C000C301B2010F94EF026CA77DA78EA79FA72C
:1047D0008090451390904613A0904713B0904813D3
:1047E00020910702309108024091090250910A027B
:1047F000C501B4010F94EF0269AB7AAB8BAB9CABF4
:10480000C0904913D0904A13E0904B13F0904C1392
:1048100020910B0230910C0240910D0250910E023A
:10482000C701B6010F94EF026DAB7EAB8FAB98AFB3
:1048300020910F023091100240911102509112020A
:10484000C301B2010F94EF022B013C01209113022E
:10485000309114024091150250911602C501B40125
:104860000F94EF024B015C01209117023091180266
:104870004091190250911A02C701B6010F94EF023C
:104880006B017C010E9446D884E396E00E9459D7D0
:1048900083E50E94EA79882321F00E949F79809322
:1048A000020280910202882319F08DE495E002C093
:1048B0008FEB97E00E9459D78CE296E00E9459D77F
:1048C0004CA55DA56EA57FA58DE898E00E9411D846
:1048D00049A95AA96BA97CA983E39BE10E9411D83D
:1048E0004DA95EA96FA978AD8CE29BE10E9411D819
:1048F00081EF98E20E9459D784E296E00E9459D74E
:10490000B301A2018DE898E00E9411D8B501A4017D
:1049100083E39BE10E9411D8B701A6018CE29BE1E1
:104920000E9411D88AE00E94082EECC483E50E9400
:104930000B7C882309F4E6C40E94AF79909322028D
:1049400080932102DFC40E9447E5F82E87FDDAC478
:1049500083E50E940B7C0F2D0F2C000C110B88237C
:1049600069F10E94AF79F801EE0FFF1FE050FE4F92
:1049700091838083000F111F000F111F98012C5A83
:104980003D4F7901BC01990F880B990B0E9400FCE7
:104990002AE037ED43E25CE30E945FFCF801EE524F
:1049A000FC4F20813181428153810E945FFCD701FD
:1049B0006D937D938D939C931397A4C40E9446D8C6
:1049C00085E40E94082E80E38F0D0E94082E000FC0
:1049D000111FF801E050FE4F608171818CE196E07B
:1049E0000E9422D885E20E94082E8AE00E94082EAA
:1049F00089C480E50E94EA79882309F483C460E0D1
:104A000070E080E50E94187CF82E6FEF7FEF83E561
:104A10000E94187C8C010196039708F073C4F7FC80
:104A200071C48F2D0E941AEF882339F00E9442D85A
:104A300085EC98E00E9459D765C40E9496AC60E06E
:104A40008F2D0E94346E0F3FBFEF1B0731F00130F6
:104A5000110571F000E010E00DC08F2D0E94A16DD6
:104A600031E020E0892B09F030E0032F122F02C043
:104A700001E010E08F2D0E94A16D8017910709F4CD
:104A800041C480E00E94342FF5CF64E071E083E5FB
:104A90000E9439E78C0168EE73E080E50E9439E7F7
:104AA0008938E3E19E0710F088E893E1B8010E949D
:104AB000E0C328C460E085E40E94277C811173C0B4
:104AC00080E50E94EA79882351F00E94B3796093CF
:104AD000FC107093FD108093FE109093FF1089E4FA
:104AE0000E94EA79882381F00E94B3792CEA35ECA0
:104AF00047E25EE30E945FFC609300117093011136
:104B0000809302119093031184E40E94EA79882330
:104B100081F00E94B3792CEA35EC47E25EE30F9412
:104B2000E90360930411709305118093061190932B
:104B300007110E9446D84091FC105091FD106091E1
:104B4000FE107091FF1088E196E00E9411D82CEAC7
:104B500035EC47E25EE360910011709101118091A4
:104B60000211909103110F94E903AB01BC0184E1A0
:104B700096E00E9411D82CEA35EC47E25EE36091A2
:104B800004117091051180910611909107110E94F6
:104B90005FFCAB01BC0180E196E00E9411D88AE085
:104BA0000E94082EAFC30E9442D88EEF95E00E946B
:104BB00059D7A8C383E50E94EA79182F882371F09A
:104BC0000E94B3790F945B0470935902609358026A
:104BD00021E0672B09F020E02093E00780E50E94A8
:104BE000EA79882359F02091580230915902232BF9
:104BF00011F00E949F798093E00784C3111182C352
:104C00000E9446D88BEE95E00E9459D78091E0072C
:104C1000882319F08FE99DE102C082ED95E00E94A2
:104C200059D760915802709159028AED95E00E941F
:104C300022D886ED95E00E9459D764C30E9496ACB5
:104C400061C381E00E94B94E0E94EB605BC36FEFCD
:104C50007FEF89E40E94187C082F6FEF7FEF8AE4D2
:104C60000E94187C182F8AE50E94EA79E82E8111AB
:104C700005C081E50E94EA79F82E01C0F12C07FDFC
:104C800006C017FD04C0E11009C0F11007C00E9462
:104C900042D882EB95E00E9459D734C3043010F417
:104CA000143038F00E9442D883E999E00E9459D725
:104CB00029C3C02E000FDD08012F110F110B0E9418
:104CC000B379CC0CDD1CCC0CDD1CFF2071F0F6019F
:104CD000E00FF11FEE0FFF1FEE0FFF1FEE56FC4F10
:104CE000208131814281538103C020E030E0A9015D
:104CF0000C0D1D1D000F111F000F111F0E561C4F14
:104D00000F94EF02D8016D937D938D939C9313972D
:104D1000F9C20E94C4EC8111F5C209E215E0E4E495
:104D2000F2E0FDA7ECA79E012F5F3F4F1901E5E3DD
:104D3000CE2EE5E0DE2E7901F80165917591859121
:104D40009491ACA5BDA58D909D90AD90BD90BDA753
:104D5000ACA7A50194010F94EE022B013C01F701D1
:104D6000608371838283938320E030E040EA51ECDA
:104D70000F944F0587FD0AC020E030E040EA51E47F
:104D8000C301B2010E94F9FB18162CF4F6018491BC
:104D900018160CF43FC5D7018D909D90AD90BD9035
:104DA0007D0120E030E040EA51ECC501B4010F94F0
:104DB0004F0587FD3AC520E030E040EA51E4C501E7
:104DC000B4010E94F9FB18160CF043C52EC50E94D1
:104DD0006D6998C281E0809391030E94796310927B
:104DE0009103882309F48EC20E9446D88BE695E091
:104DF0000E9459D787C28091F71282FF83C28064D4
:104E00008093F7127FC20E9447E5082F87FD7AC280
:104E100085E50E94EA798823B1F1E02E002E000C8E
:104E2000FF080E94B3794B015C0120E030E0A9014A
:104E30000F944F0587FF04C0B7FAB094B7F8B09449
:104E4000C70163E0880F991F6A95E1F79C01275716
:104E50003C4F7901D9018D929D92AD92BC921397EE
:104E600020E030E04FE254E4C501B4010F944F0557
:104E700018164CF480E090E0AFE2B4E4F7018083D0
:104E80009183A283B3838CE40E94EA79882309F496
:104E900039C2002E000C110B0E94B3796B017C010A
:104EA00020E030E0A9010F944F0587FF04C0F7FA16
:104EB000F094F7F8F09420E030E04FE254E4C701BA
:104EC000B6010F944F05980153E0220F331F5A95F6
:104ED000E1F7F901E757FC4F18162CF0C482D58290
:104EE000E682F7820FC280E090E0AFE2B4E4848310
:104EF0009583A683B78306C20E9447E5182F87FDD6
:104F000001C28AE50E940B7C882349F040E050E012
:104F1000BA018AE50E9498B64B015C0106C0812C5B
:104F2000912C40EAA42E41E4B42E412F63E085E0A9
:104F30000E94A97720E030E0A901C501B4010F94D7
:104F40004F0518167CF580E090E0A0EAB0E4898374
:104F50009A83AB83BC8320914C0230914D024091E7
:104F60004E0250914F02C501B4010F94EF026B0144
:104F70007C0120E030E048E153E40E94F9FB87FD2A
:104F800006C0C12CD12C38E1E32E33E4F32ECC8EB5
:104F9000DD8EEE8EFF8EBE016F5F7F4FCE014C9691
:104FA0000E9479B680E090E0A8E4B2E488A799A7CF
:104FB000AAA7BBA780E090E0A8ECB1E48CA39DA3D6
:104FC000AEA3BFA38CE40E94EA79882329F00E9453
:104FD000B3796B017C0108C0C0908D03D0908E0323
:104FE000E0908F03F090900320E030E0A901C7012A
:104FF000B6010F944F0587FF04C0F7FAF094F7F855
:10500000F094C8A2D9A2EAA2FBA20091F9101091D3
:10501000FA10043011059CF120E030E0A901609104
:10502000F5107091F6108091F7109091F8100F9490
:10503000EF026B017C01B801110F880B990B0E94E4
:1050400000FC9B01AC01C701B6010F94EE026B019D
:105050007C0120E030E0A9010F944F0587FF04C0D8
:10506000F7FAF094F7F8F09401E020E030E040E443
:1050700050E4C701B6010F944F0518160CF000E07C
:1050800083E00E9461D8811106C040E063E089E0BE
:105090000E94A9770DC023E0E22E2AE0AE01485D10
:1050A0005F4FBE01605E7F4FCE0184960E94D8EBB9
:1050B00020E030E0A901C501B4010F944F05181696
:1050C0005CF580E090E0A0EAB0E489839A83AB834A
:1050D000BC83A501940160914C0270914D028091B6
:1050E0004E0290914F020F94EE026B017C0120E082
:1050F00030E0A9010F944F0518161CF0C12CD12CDB
:105100007601CC8EDD8EEE8EFF8EBE016F5F7F4FFF
:10511000CE014C960E9479B640E060E089E00E94A2
:10512000A977F0C00E9447E5182F87FDEBC08AE5FC
:105130000E940B7C882349F040E050E0BA018AE5E8
:105140000E9498B64B015C0106C0812C912C90EA1C
:10515000A92E91E4B92E412F64E083E00E94A97743
:1051600020E030E0A901C501B4010F944F051816E5
:105170007CF580E090E0A0EAB0E489839A83AB8379
:10518000BC8320914C0230914D0240914E025091CF
:105190004F02C501B4010F94EF026B017C0120E0C6
:1051A00030E048E153E40E94F9FB87FD06C0C12CC2
:1051B000D12C88E1E82E83E4F82ECC8EDD8EEE8EA5
:1051C000FF8EBE016F5F7F4FCE014C960E9479B675
:1051D00085E50E94EA79882329F00E94B3796B0162
:1051E0007C010AC028E01202F0011124E757FC4FAD
:1051F000C080D180E280F38020E030E0A901C701C7
:10520000B6010F944F0587FF04C0F7FAF094F7F842
:10521000F094F7FAF094F7F8F094C982DA82EB820E
:10522000FC8244E061E0CE0101960E9485D820E036
:1052300030E0A901C501B4010F944F0518165CF5C3
:1052400080E090E0A0EAB0E489839A83AB83BC83DA
:10525000A501940160914C0270914D0280914E0223
:1052600090914F020F94EE026B017C0120E030E040
:10527000A9010F944F0518161CF0C12CD12C7601F2
:10528000CC8EDD8EEE8EFF8EBE016F5F7F4FCE0126
:105290004C960E9479B640E060E089E00E94A977D0
:1052A00031C00E9478BD2EC081E08093240210920C
:1052B000880360E083E50E94337C811123C00E9453
:1052C00091BC20C00E94CAEB1DC000916D041091DA
:1052D0006E040023B9F00E9446D884E50E94082E8F
:1052E000B8017727072E000C880B990B0E947C2EA3
:1052F00080E20E94082E8EEF95E00E9459D702C0EE
:105300000E94CAEB0E9481BC38A930935C13D7C2BB
:105310000E9496AC80E00E94F2D30E945DB581E0CD
:10532000809331040E942F6288E50E94EA79182F49
:1053300089E50E94EA79F82E8AE50E94EA791F1130
:105340001AC1181711F0F12E16C1FF24F39411E0C1
:1053500001E080E1E4E4F2E0A3E3B4E001900D9227
:105360008A95E1F782E50E940B7C882369F00E9410
:10537000B3794B015C0120E030E0A9010E94F9FB08
:10538000882309F43EC006C0812C912C50EAA52E3A
:1053900050E4B52E111102C0FF20E9F180914013B5
:1053A00082FD09C060914C0270914D0280914E02C5
:1053B00090914F0203C060E070E0CB01A501940121
:1053C0000F94EF0260933B0470933C0480933D0480
:1053D00090933E0420914C0230914D0240914E0238
:1053E00050914F020F944F0518165CF419821A82DF
:1053F0001B821C82BE016F5F7F4F8BE394E00E9493
:1054000079B6112319F080E00E949CB0FF2019F0BA
:1054100081E00E949CB0002309F49FC0809140135A
:105420008370833051F060E084EE99E00E940DC4F7
:105430000E9446D885ED99E0A9C00E94E96080915C
:105440004C0290914D02A0914E02B0914F028CA758
:105450009DA7AEA7BFA720914D1330914E13409149
:105460004F135091501360E070E088EF92E40F9476
:10547000EE024B015C01609333047093340480931B
:10548000350490933604209151133091521340917A
:1054900053135091541360E070E086E992E40F9446
:1054A000EE022B013C016093370470933804809323
:1054B000390490933A04209155133091561340913A
:1054C0005713509158136CA57DA58EA59FA50F94D9
:1054D000EE0260933B0470933C0480933D049093F0
:1054E0003E0427E137EB41ED58EBC301B2010F94C5
:1054F0004F0587FD42C027E030E046E153E4C30199
:10550000B2010E94F9FB1816C4F124E330E040EE2A
:1055100051ECC501B4010F944F0587FD2EC027E063
:1055200030E049E753E4C501B4010E94F9FB1816C5
:1055300024F119821A821B821C82CE0101966C0111
:10554000ECA4FDA40EA51FA5A3019201C501B40101
:105550000E9497B582E00E949CB00E94E960809111
:105560003204809331040E9444B583E08093230287
:105570000E94EB60C7CE082FECCE60E084EC99E08F
:105580000E940DC40E9446D882EB99E00E9459D730
:10559000E4CF0E94487CB6CE11110C943A1C0C94B6
:1055A000331C80E00E94342F0C945E1C88E50E941E
:1055B000EA7981115F9889E50E94EA7981118A98D8
:1055C0008AE50E94EA79882329F080910801817098
:1055D0008093060185E40E94EA79882309F492CE3B
:1055E000129890CE60E087E799E00E940DC45F9822
:1055F0008A9880910801817080930601129882CE6A
:105600000E947B79AB01BC014093F3125093F412DA
:105610006093F5127093F61288E091E10E94F557BD
:1056200071CE61E0802F0E94346E6F2D802F0E941A
:10563000CA6D6F2D70E0802F0E94706E63CEA30143
:105640009201C501B4010F944F05181694F080EB38
:1056500099E29F938F9380EC98E09F938F931F9292
:105660000E946FC40F900F900F900F900F900C94AA
:105670005B1F8FEB99E2EDCF0E9496AC88E50E940C
:10568000EA79882331F05F9A809140138E7F80936E
:10569000401389E50E94EA79882331F08A9A809143
:1056A00040138D7F809340138AE50E94EA79882316
:1056B00059F0809108018095817080930601809156
:1056C00040138B7F8093401385E40E94EA791ACEC1
:1056D0000E949CAD17CE83E50E940B7C882391F03D
:1056E0000E94B3796093D80C7093D90C8093DA0C34
:1056F0009093DB0C6093E00C7093E10C8093E20CD0
:105700009093E30C80E50E940B7C882351F00E946B
:10571000B3796093D80C7093D90C8093DA0C909382
:10572000DB0C82E50E940B7C882351F00E94B37948
:105730006093DC0C7093DD0C8093DE0C9093DF0C97
:1057400084E50E940B7C882309F4DCCD0E94B379A8
:105750006093E00C7093E10C8093E20C9093E30C67
:10576000D1CD82E40E94EA79882351F00E944CE76F
:105770006093B40C7093B50C8093B60C9093B70CF7
:1057800083E50E94EA79882351F00E94B3796093FF
:10579000E40C7093E50C8093E60C9093E70C84E5A1
:1057A0000E94EA79882351F00E94B3796093E80C53
:1057B0007093E90C8093EA0C9093EB0C8AE40E94BE
:1057C000EA79882309F49ECD0E94B3796B017C01AC
:1057D0002AE037ED43E25CE30F944F0587FD13C0E9
:1057E0002AE939E949E95EE3C701B6010E94F9FBFC
:1057F00018164CF0C092B207D092B307E092B407EB
:10580000F092B5077FCD0E9442D884E496E00E94D2
:1058100059D778CDB7FAB094B7F8B094D7018D9234
:105820009D92AD92BC921397B6CA0E9442D884E969
:1058300095E00E9459D761E086E895E00E940DC48A
:105840000E941C9D68E270E088EC90E00E94E0C33A
:1058500059CD0C5F1F4FBFEFCB1ADB0AE5E3F5E034
:10586000E017F10709F068CA76EDE72E73E0F72E2E
:1058700010E0F10181919191A191B1911F01F70186
:1058800081939193A193B1937F01812F0E947CB06A
:105890001F5F133071F70E94EB6060E086E795E0D0
:1058A0000E940DC463E972E084E690E00E94E0C3C8
:1058B0006AEB72E084E690E00E94E0C323CDE896B4
:1058C0000FB6F894DEBF0FBECDBFDF91CF911F9111
:1058D0000F91FF90EF90DF90CF90BF90AF909F908F
:1058E0008F907F906F905F904F903F902F90089592
:1058F00080910D0481110AC08091900E813041F099
:105900008091F71282FB882780F9089580E008953E
:1059100081E008955F9A809140138E7F80934013B9
:105920008A9A809140138D7F809340138091080163
:105930008095817080930601809140138B7F8093C6
:1059400040130895FF920F931F93CF93DF93EC01C1
:105950008B01F42E0E94DF380E9442D880E19CE047
:105960000E9459D70115110511F401E71AE2209799
:1059700011F4C7E0DCE00E94F6AA1F930F93DF93B7
:10598000CF9380E09CE09F938F9381E08F930E9460
:105990006FC40E941C9D60E080E00E940C9E83E426
:1059A00094E00E94009E41EF5BE062E080E00E9494
:1059B000ED9F44EE5BE063E080E00E94ED9FEDB779
:1059C000FEB737960FB6F894FEBF0FBEEDBF89EE57
:1059D00093E030E6019729F0232F2A950000E9F79C
:1059E000F9CFF89489EE93E038EE019729F0232F50
:1059F0002A950000E9F7F9CF0E94DF38F1100E94E4
:105A00008A2C909902C0A895FCCF909B02C0A895C3
:105A1000FCCFE0E0F0E0DF91CF911F910F91FF907C
:105A20001994CF9380916F00C82FC27081FF05C079
:105A300080916F008D7F80936F00809180118093A3
:105A40007F1180937E1180937D1184E680937C1179
:105A50000E94B0AF88EE93E09093A20C8093A10CCB
:105A6000CC2329F080916F00826080936F0081E0E9
:105A70008093C5060E9496AC8EEF0E945C60CF9129
:105A80000C94E96080917304811107C00E946D69D4
:105A9000882319F081E0809373040895EEECF7E019
:105AA0001082118208959091F71293FB882780F954
:105AB00093FF06C081E090910B11911101C080E02D
:105AC000089580910D04811110C08091900E823054
:105AD00061F00E94532D882349F08091F71282FBD8
